:020000040000fa
:080000000002040000000000f2
:020000040000fa
:0400080020030000d1
:020000040000fa
:04000c0020030000cd
:020000040000fa
:0400100020030000c9
:020000040000fa
:0400140020030000c5
:020000040000fa
:0400180020030000c1
:020000040000fa
:04001c0020030000bd
:020000040000fa
:0400200020030000b9
:020000040000fa
:0400240020030000b5
:020000040000fa
:0400280020030000b1
:020000040000fa
:04002c0020030000ad
:020000040000fa
:0400300020030000a9
:020000040000fa
:0400340020030000a5
:020000040000fa
:0400380020030000a1
:020000040000fa
:04003c00200300009d
:020000040000fa
:040040002003000099
:020000040000fa
:040044002003000095
:020000040000fa
:040048002003000091
:020000040000fa
:04004c00200300008d
:020000040000fa
:040050002003000089
:020000040000fa
:040054002003000085
:020000040000fa
:040058002003000081
:020000040000fa
:04005c00200300007d
:020000040000fa
:040060002003000079
:020000040000fa
:040064002003000075
:020000040000fa
:040068002003000071
:020000040000fa
:04006c00200300006d
:020000040000fa
:040070002003000069
:020000040000fa
:040074002003000065
:020000040000fa
:04007800fa02000088
:020000040000fa
:04007c00200300005d
:020000040000fa
:040080002003000059
:020000040000fa
:040084002003000055
:020000040000fa
:040088002003000051
:020000040000fa
:04008c00200300004d
:020000040000fa
:040090002003000049
:020000040000fa
:040094002003000045
:020000040000fa
:040098002003000041
:020000040000fa
:04009c00200300003d
:020000040000fa
:0400a0002003000039
:020000040000fa
:0400a4002003000035
:020000040000fa
:0400a8002003000031
:020000040000fa
:0400ac00200300002d
:020000040000fa
:0400b0002003000029
:020000040000fa
:0400b4002003000025
:020000040000fa
:0400b8002003000021
:020000040000fa
:0400bc00200300001d
:020000040000fa
:0400c0002003000019
:020000040000fa
:0400c4002003000015
:020000040000fa
:0400c8002003000011
:020000040000fa
:0400cc00200300000d
:020000040000fa
:0400d0002003000009
:020000040000fa
:0400d4002003000005
:020000040000fa
:0400d8002003000001
:020000040000fa
:0400dc0020030000fd
:020000040000fa
:0400e00020030000f9
:020000040000fa
:0400e40020030000f5
:020000040000fa
:0400e80020030000f1
:020000040000fa
:0400ec0020030000ed
:020000040000fa
:0400f00020030000e9
:020000040000fa
:0400f40020030000e5
:020000040000fa
:0400f80020030000e1
:020000040000fa
:0400fc0020030000dd
:020000040000fa
:0401000020030000d8
:020000040000fa
:0401040020030000d4
:020000040000fa
:0401080020030000d0
:020000040000fa
:04010c0020030000cc
:020000040000fa
:0401100020030000c8
:020000040000fa
:0401140020030000c4
:020000040000fa
:0401180020030000c0
:020000040000fa
:04011c0020030000bc
:020000040000fa
:0401200020030000b8
:020000040000fa
:0401240020030000b4
:020000040000fa
:0401280020030000b0
:020000040000fa
:04012c0020030000ac
:020000040000fa
:0401300020030000a8
:020000040000fa
:0401340020030000a4
:020000040000fa
:0401380020030000a0
:020000040000fa
:04013c00200300009c
:020000040000fa
:040140002003000098
:020000040000fa
:040144002003000094
:020000040000fa
:040148002003000090
:020000040000fa
:04014c00200300008c
:020000040000fa
:040150002003000088
:020000040000fa
:040154002003000084
:020000040000fa
:040158002003000080
:020000040000fa
:04015c00200300007c
:020000040000fa
:040160002003000078
:020000040000fa
:040164002003000074
:020000040000fa
:040168002003000070
:020000040000fa
:04016c00200300006c
:020000040000fa
:040170002003000068
:020000040000fa
:040174002003000064
:020000040000fa
:040178002003000060
:020000040000fa
:04017c00200300005c
:020000040000fa
:040180002003000058
:020000040000fa
:040184002003000054
:020000040000fa
:040188002003000050
:020000040000fa
:04018c00200300004c
:020000040000fa
:040190002003000048
:020000040000fa
:040194002003000044
:020000040000fa
:040198002003000040
:020000040000fa
:04019c00200300003c
:020000040000fa
:0401a0002003000038
:020000040000fa
:0401a4002003000034
:020000040000fa
:0401a8002003000030
:020000040000fa
:0401ac00200300002c
:020000040000fa
:0401b0002003000028
:020000040000fa
:0401b4002003000024
:020000040000fa
:0401b8002003000020
:020000040000fa
:0401bc00200300001c
:020000040000fa
:0401c0002003000018
:020000040000fa
:0401c4002003000014
:020000040000fa
:0401c8002003000010
:020000040000fa
:0401cc00200300000c
:020000040000fa
:0401d0002003000008
:020000040000fa
:0401d4002003000004
:020000040000fa
:0401d8002003000000
:020000040000fa
:0401dc0020030000fc
:020000040000fa
:0401e00020030000f8
:020000040000fa
:0401e40020030000f4
:020000040000fa
:0401e80020030000f0
:020000040000fa
:0401ec0020030000ec
:020000040000fa
:0401f00020030000e8
:020000040000fa
:0401f40020030000e4
:020000040000fa
:0401f80020030000e0
:020000040000fa
:0401fc0020030000dc
:020000040000fa
:0402000020030000d7
:020000040000fa
:0402040020030000d3
:020000040000fa
:0402080020030000cf
:020000040000fa
:04020c0020030000cb
:020000040000fa
:0402100020030000c7
:020000040000fa
:0402140020030000c3
:020000040000fa
:0402180020030000bf
:020000040000fa
:04021c0020030000bb
:020000040000fa
:0402200020030000b7
:020000040000fa
:0402240020030000b3
:020000040000fa
:0402280020030000af
:020000040000fa
:04022c0020030000ab
:020000040000fa
:0402300020030000a7
:020000040000fa
:0402340020030000a3
:020000040000fa
:04023800200300009f
:020000040000fa
:04023c00200300009b
:020000040000fa
:040240002003000097
:020000040000fa
:040244002003000093
:020000040000fa
:04024800200300008f
:020000040000fa
:04024c00200300008b
:020000040000fa
:040250002003000087
:020000040000fa
:040254002003000083
:020000040000fa
:04025800200300007f
:020000040000fa
:04025c00200300007b
:020000040000fa
:040260002003000077
:020000040000fa
:040264002003000073
:020000040000fa
:04026800200300006f
:020000040000fa
:04026c00200300006b
:020000040000fa
:040270002003000067
:020000040000fa
:040274002003000063
:020000040000fa
:04027800200300005f
:020000040000fa
:04027c00200300005b
:020000040000fa
:040280002003000057
:020000040000fa
:100400002f0021000eff22000e01880000000000d6
:10041000000020000000e000020032000001200087
:100420002002880014000700870007000000e00099
:1004300003003a00a04e2000010020000200370017
:100440000000200001002000810f70000100320038
:100450000f000700000020000000e0000200320052
:10046000000002000000000058030200000000002d
:100470000040da000000fe00200020000000e00044
:1004800002003200100020009001880000000600e9
:10049000a1028800800478000000eb001f003700f4
:1004a000e284440054a0b4009905ba00e2844400f8
:1004b00054a0b4009906ba00e284440054a0b400e9
:1004c0000006eb00476fde00fd07b200ae018800ba
:1004d000636ce10003003a000ad801000000eb0061
:1004e0000e003700606ce10008003a00004deb00a0
:1004f0000a05e800020039003420ec000af0a000f0
:100500008b05e900f9ff3e00040037006168e10057
:10051000010032000086eb000b00070019c7ba008b
:100520000e04e0001905ba0003003a000a00e000da
:10053000dbff3a0000000600fe07b200ae028800b2
:100540008a047800f5ff37000cd0a300e20f4d00bd
:100550001c00390089027800354dba000a05e80010
:10056000020039003420ec000af0a0008b05e900fd
:100570000f003200254dba000a05e80002003900dc
:100580003420ec000af0a0008b05e90008003200de
:100590000c00e0000600320015cdba000a05e800a4
:1005a000020039003420ec000af0a0008b05e900bd
:1005b0008984e80054a0b4000b00e000e2ff3a0098
:1005c000000006009902ba00055d78008b05e9007d
:1005d000f7ff3200c82ade00055d78008b05e900d0
:1005e000f3ff32000c00e000f1ff320019ddba0029
:1005f000eeff37003200f8003400f800881f780062
:1006000018002000a8018800180020009801880028
:10061000000000004f0478000000fa0015aea900a9
:1006200015cea90015eea9000030ef000288a90040
:100630000080fa003400f9003200f90000400600a2
:0c0640000040da000000fe000000050091
:020000040000fa
:10064c000000fa000e0ea9000e2ea9000e8ea900b5
:10065c00000ea800002ea800004ea80011aea900a4
:10066c0011cea90011eea9000080fa0000000600ce
:10067c000000fa0001358000f00f28008080600037
:10068c00001022000100700000358800c3e8a800ab
:10069c00c228a8000288a9002288a8000080fa00bd
:1006ac00000006000400fa00e5ff0700f0ff070059
:1006bc001070800000407800614060000080fb00fa
:1006cc00800078000100a200010f780010708000fb
:1006dc000000d100614060000080fb000000a2001f
:1006ec001007980000808000e10f500027003200b6
:1006fc00e10f500005003900e20f500044003200b9
:10070c00e30f500062003200820037001e007800b8
:10071c000000e00003003200e10f50000d00320039
:10072c007c0037001e0090000000e0000300320047
:10073c00e10f500003003200050037000030ef00dd
:10074c00030037001000200000808800000000002b
:10075c000d0037001e0090000000e0000300320086
:10076c00e10f50000400320006003700100020009a
:10077c0000808800030037001000200000808800f3
:10078c000000000000000000620037001e0078002e
:10079c000000e00003003200e10f50000e003200b8
:1007ac005c0037001e0090000000e00003003200e7
:1007bc00e10f50000400320006003700200020003a
:1007cc000080880003003700300020000080880083
:1007dc00000000000d0037001e0090000000e0003b
:1007ec0003003200e10f5000040032000600370015
:1007fc00200020000080880003003700100020003b
:10080c00008088000000000000000000410037005c
:10081c001e0078000000e00003003200e10f5000e1
:10082c000d0032003b0037001e0090000000e0007d
:10083c0003003200e10f50000400320005003700c5
:10084c0030002000008088000200370010002000db
:10085c00008088000d0037001e0090000000e000b2
:10086c0003003200e10f5000040032000600370094
:10087c0030002000008088000300370010002000aa
:10088c0000808800000000000000000021003700fc
:10089c001e0078000000e00003003200e10f500061
:1008ac000e0032001b0037001e0090000000e0001c
:1008bc0003003200e10f5000040032000600370044
:1008cc00100020000080880003003700200020006a
:1008dc0000808800000000000d0037001e00900012
:1008ec000000e00003003200e10f50000400320071
:1008fc00060037001000200000808800030037003d
:10090c0010002000008088000000000000000000a3
:10091c000000000000808000e10f50000b0032004e
:10092c00e10f500005003900e20f50000b003200bf
:10093c00e30f50000d0032001000370015aea90077
:10094c0015cea90015eea9000c00370015aea800b5
:10095c0015cea80015eea8000800370015aea800ab
:10096c0015cea90015eea8000400370015aea9009d
:10097c0015cea80015eea9000000000040d42100ff
:10098c00c1012000020007000060fe0048ff370094
:020000040000fa
:10099c00f03fb1000180b10006003500ee03090004
:1009ac0000000000403fb1000180b100fbff3d00a2
:1009bc001000b000203fb00002003500008009009c
:0809cc0000000000000006001d
:020000040000fa
:1009d400001000000200000082000000020000007d
:0409e400000000000f
:020000040000fa
:020000040001f9
:045fe000ceff0000f0
:00000001FF
