:020000040000fa
:080000000002040000000000f2
:020000040000fa
:10000800cc020000cc020000cc020000cc020000b0
:10001800cc020000cc020000cc020000cc020000a0
:10002800cc020000cc020000cc020000cc02000090
:10003800cc020000cc020000cc020000cc02000080
:020000040000fa
:100400008f2421000eff22000e0188000000000052
:1004100000012000200288000c000700e09221006b
:10042000010020000f000700000020000000e00095
:10043000020032000000020000000000ea1a020080
:10044000000000000040da000000fe002002200052
:100450000000e0000200320000202000900188002f
:1004600000000600a1028800800078000000eb0078
:100470001a003700e280400054a0b4009101ba0095
:10048000e280400054a0b4009102ba00e280400033
:1004900054a0b4000002eb00472bde00f507b200c9
:1004a000a6018800602ce10008003a000049eb003a
:1004b0000201e800020039003420ec0002f0a00044
:1004c0008301e900f9ff3e00040037006128e100e4
:1004d000010032000082eb00040007001101ba00a5
:1004e0000200e000e3ff3a000000060004d0a30091
:1004f000e20f49001c003900810278003549ba003a
:100500000201e800020039003420ec0002f0a000f3
:100510008301e9000f0032002549ba000201e8001a
:10052000020039003420ec0002f0a0008301e90051
:10053000080032000400e0000600320015c9ba00cd
:100540000201e800020039003420ec0002f0a000b3
:100550008301e9008180e80054a0b4000300e000ba
:10056000e2ff3a00000006009102ba000559780047
:100570008301e900f7ff3200c82ade000559780040
:100580008301e900f3ff32000400e000f1ff3200d4
:1005900011d9ba00eeff37000040da000000fe007b
:1005a00003f0a200889fbe008a9fbe008c1f7800c7
:1005b000c3000700ca0033006450e1004f0032005e
:1005c0006420e1005200320003826c0007003b000f
:1005d0000905d0000306d000820f54000c065d0010
:1005e0000200390002003200890178000306780019
:1005f0008582550004003d000003fd008103fd00dd
:100600008502ea008b854200840f720002003b00e5
:1006100060001000e08018006011b8000005eb00d9
:100620007a28e1000a00390006007800c75ddd0085
:10063000f707b200878075002d00370082817100b6
:100640000a017800610560008180d1000080d3003c
:100650008502e900f9ff3b0006044000878448005a
:1006600002003b0060041400e0841c000988a30021
:10067000070032008a81710082817100610164008b
:100680008904d1000884d3008b05e80017003700e7
:100690000978a30013003a000b00e00013003400b7
:1006a0008b05e9000804440089844c000a44740066
:1006b0000978a3000d003a000b00e00007003400a9
:1006c0008b05e9000804440089844c0001003a00cd
:1006d0000b0020000978a300f7ff32000001eb00b7
:1006e00002003700828171000a0178004e00070085
:1006f0000cf0a70001f0a000820037006420e100a8
:1007000002003a00838f6c00820033000801be00b3
:100710000200be007b003700889fbe008a9fbe009b
:100720008c1f7800660007006d00330003866c00a4
:100730006450e1002e0032006420e10033003200fa
:100740006150e1002f0032006120e10031003200f1
:1007500085855500eb07b000090020000804200043
:10076000050037000804440089844c000a00310069
:100770000603430087834b000001530081815b0027
:10078000f8ff33000203be000800a0000804440084
:1007900089844c00f6ff3900c639dd0083017300ff
:1007a00001003200130020008904d1000884d30026
:1007b0000998a300050032000800a7000300a0006c
:1007c0008904d1000884d3008b05e8008904d10096
:1007d0000884d3000001eb000281d2001200070060
:1007e00001f0a1000cf0a70001f0a00045003700c7
:1007f0006420e100470032000801be000200be0094
:10080000f7ff37006120e100420032006000b800cd
:10081000f3ff37000000200001f82700f0ff370049
:100820006011b800e20137008100200061805500ae
:100830000b003d000b00200061fe2f000100e100d5
:100840001d00340082817100610164008904d100bf
:100850000884d3000000e800faff3a00710020008d
:1008600061006400030070000200600009003200b3
:1008700061044400e0844c000988a50005003200b2
:100880008b05e8006808e10002003a008904d10005
:100890000884d300f20f20000258e10005003d005b
:1008a000c75ddd00f907b200898075000800780097
:1008b000000006000bf827008b0078000000050000
:1008c0000004be00e90107000003be000405be00ed
:1008d0000200be00e5010700844f7500000006001d
:1008e0000200be006450e100050036006420e10013
:1008f000020036000968a30001003a000800be00ab
:100900000160a0004f0678004f05be004f04be00f6
:1009100000000600f0ff2f00f1ff2700f9ff37006d
:10092000889fbe008a9fbe008c1f7800e4ff0700ee
:10093000ebff330003866c006450e10024003200ba
:100940006420e100270032006150e1002200320003
:100950006120e100210032008b854200eb07b100ed
:100960000134b800003ab8000804420089844a0003
:10097000013ab8000030b8008880400009014a0000
:10098000040033000000400081804800020149005b
:100990008b05e900c909dd00830170000100320008
:1009a00013002000c814de004814dd004709de00f3
:1009b0001200b200c808de00088470009aff070029
:1009c00001f0a1000cf0a70001f0a000cdff37005e
:1009d0006120e100cfff32000801be000200be002e
:1009e000f7ff37006150e100fcff3a00c9ff370014
:1009f000889fbe008a9fbe008c1f78000004be0046
:100a00009a0107000478a30026003a006120e10063
:100a10002500320009f8a30025003a006420e10017
:100a200021003200f507b1000508a30002003200e2
:100a300000004000818048006044b800031020009e
:100a400002002000000040008180480008054400aa
:100a500089854c000a0541008b8549000a05500034
:100a60008b855800030033000a00be0002047400a6
:100a7000838474008301d1000281d300830f71004d
:100a8000f0ff3a008904d1000884d30060014900d6
:100a900082017800c1adde00fb07b00062ff0700f5
:100aa00098ff37000960a0000800be0095ff3700de
:100ab0001202200002808800f0ff2f00f1ff2700c3
:100ac00090ff37000000fa00889fbe008a9fbe009a
:100ad0003004be002005be000404440085844c00a0
:100ae00006054d0087854d000898be000a90be009f
:100af0000440e10005c8e10006d0e10007d8e100ac
:100b000002003100680040001008e8004f05be00f8
:100b10004f04be000080fa00000006001000fa003a
:100b2000889fbe008a9fbe000605be000404be006a
:100b30003002be002003be00049fbe000697be0028
:100b40000802520089825a000a035b008b835b0013
:100b500044079800550798006607980077079800a3
:100b60000498be000698be00110020003e02be00a0
:100b70002e03be000820e10009a8e1000ab0e10050
:100b80000bb8e100010039008000eb001088100074
:100b90004f05be004f04be000080fa0000000600b2
:100ba0001400fa00889fbe008a9fbe008c9fbe0082
:100bb000590007000605be000404be000006eb0055
:100bc0004c0798003c0798002c0798001c079800d9
:100bd0000c0f78000d0420004e039000be02900020
:100be000860343002e029000e00f530003003d00f7
:100bf0002a000700b3ff07000200370027000700a4
:100c0000c6ff0700ce029000150f9800e08f52003b
:100c100009003500450007001400200005002000f1
:100c20006033b8000000720081807200020173001e
:100c300083817300380007000c06e8008d0f560012
:100c4000e5ff3a001e0a9000e00f520004003d004c
:100c50000802be000a03be000e00780099ff0700dc
:100c60004eba9700e00f520006003a003e04be0064
:100c70002e05be0058079800690798007a0798006b
:100c80000b0f9800290007004f06be004f05be005d
:100c90004f04be000080fa00000006004f2bde006b
:100ca00087037300470798004f23de0085824200c8
:100cb00085027300350798009e0290004f2bde00de
:100cc0000402420004027300240798001e02780008
:100cd0004f23de00858242008502730015079800cd
:100ce000120007004f18de0004024200000f7200dd
:100cf0000e0007000000400081804800020149000a
:100d000083814900040007000802be000a03be00f8
:100d10000e00780000000600500798006107980058
:100d200072079800030f9800000006005e00900014
:100d3000ee0090007e0190008e09900000000600f9
:100d40000000fa00881f780018002000881f780033
:100d500093ff07008f87e9004f0478000080fa00b6
:100d6000000006000000fa00801feb008cff070067
:100d70008f87e9000080fa00000006000000fa00fa
:100d8000889fbe008a9fbe00e00f5000e08f580091
:100d9000e00f5900e08f59000c003d006044b8009e
:100da0006055b8000000540081805c0002015d00c5
:100db00083815d00180020001600070008003d0038
:100dc000190007000004eb00050037000004eb00e9
:100dd0001000070002003d0013000700180020006b
:100de000d7ff0700e00f5400060032006022b80071
:100df0006033b8000000520081805a0002015b009d
:100e000083815b004f05be004f04be000080fa00e6
:100e100000000600e00f5200e08f5a00e00f5b0078
:100e2000e08f5b00000006006044b8006055b80029
:100e30000402540085825c0006035d0087835d0028
:100e4000000006000000fa00889fbe008a9fbe00d6
:100e50008c1f7800e00f5000e08f5800e00f590021
:100e6000e08f59000d003d006044b8006055b800a7
:100e70000000540081805c0002015d0083815d0000
:100e80001c0020000820e10009a8e1000ab0e100f0
:100e90000bb8e1000d003d00080037000006eb0034
:100ea000e00f5200e08f5a00e00f5b00e08f5b0024
:100eb00006003d006044b8006055b80004025400cc
:100ec00085825c0006035d0087835d00a5ff070047
:100ed000e00f5600060032006022b8006033b80010
:100ee0000000520081805a0002015b0083815b0098
:100ef0004f0678004f05be004f04be000080fa0088
:100f0000000006000000fa00889fbe008a9fbe0015
:100f10008c1f78000006eb00e00f5000e08f5800b7
:100f2000e00f5900e08f590007003d006044b80011
:100f30006055b8000000540081805c0002015d0033
:100f400083815d001c002000e00f5200e08f5a00fa
:100f5000e00f5b00e08f5b0007003d006044b800dd
:100f60006055b8000402540085825c0006035d00f1
:100f700087835d000c00a20051000700e00f5600bf
:100f8000060032006022b8006033b8000000520052
:100f900081805a0002015b0083815b004f0678006c
:100fa0004f05be004f04be000080fa00000006009e
:100fb000889fbe008a9fbe000082700004027100fc
:100fc00004827100260032000004be000200be0050
:100fd0006011b8006b092000950220000182cf004b
:100fe0000a0039000541b1000082cf000700390036
:100ff0000541b1000982cf00040039000541b1006c
:101000000882cf00010039000541b10005425200bd
:10101000120032000a003b0082817100610164000d
:101020008100d1000080d3008984d3000884d300dc
:101030008b05e8000442e800f7ff3a00070037009c
:101040000804440089844c00000048008180480066
:101050008b05e9000442e900f9ff3a00f2fd0700c0
:101060004f05be004f04be0000000600c70ade00a8
:10107000f107b200f50fb20008003200e1cf4200e4
:10108000020032000170a00024000500810f7000f2
:10109000010032000408050044000500810f7000c3
:1010a00002003a00140005008502e900000040003b
:1010b00081c04800fcff3b000170a0002400050037
:1010c000889fbe008a9fbe008c9fbe000404b800ab
:1010d0000506b8008904460060854e000606b80083
:1010e0000a054600e0854e000706b8008b0546005d
:1010f000040eb800890446000a854e00e0854d00c4
:10110000050eb8000a0546008b854e00060eb80095
:101110008b0546000416b8000a0546008b854e0074
:101120000516b8008b054600041eb8008b05460066
:101130000800be000a01be004f06be004f05be00fb
:101140004f04be00000006000000fa000002780014
:101150008042eb00b4cf1200fdff3a000080ea00ad
:10116000000042000080fa00000006000c00fa00b7
:10117000889fbe0000047800f4ff27005407980001
:101180008004eb0019079800080f780028079800e2
:10119000240c20003407980068015700ceb897004f
:1011a0000e007800b70007001e027800094a780098
:1011b0001e0014004f04be000080fa00000006006c
:1011c0000800fa00889fbe008a9fbe000084fb00d2
:1011d000d4c6b300844f50002c0036004b062000cc
:1011e000110009000b84d8008105780072004000ce
:1011f0004300dd00290b2100008044006022b8007c
:101200000600200007fe23005001be004000be0083
:10121000ef0607000002be000203be00049fbe00ee
:101220000697be00aa002000110009008a85d80098
:1012300080057800e9854500c35ddd008b854400ad
:101240003b02be002b03be003e00be002e01be00ce
:10125000df0607000002be000203be00049fbe00be
:101260000697be00110009000a84d8000104780026
:101270004344dd00888444003902be002903be00d7
:101280003e00be002e01be001d003700ea4f500098
:1012900013003600aa002000110009000a84d800bb
:1012a00001057800690440004344dd00290b21005a
:1012b000088444006022b8000600200007fe2300d6
:1012c0003800be002801be00c10607004355dd00fe
:1012d0008a8444003902be002903be00080037009a
:1012e0004344dd00240b2100080442006022b800c2
:1012f0000600200007fe23003800be002801be00c3
:10130000b30607004f05be004f04be000080fa0080
:10131000000006000800fa00889fbe008a9fbe00f9
:10132000d4c6b300e04f500022003d000040ea0068
:101330000004fb00844f50000a00340044062000e3
:10134000110009000404d800a900200011000900c0
:101350008900d800e9004000c308dd002a0b210005
:1013600020003700ea4f50000f003400a400200096
:10137000110009000404d800690040004300dd00aa
:10138000240b210000004200430cdd000802420053
:101390005403be004402be005001be004000be0027
:1013a0008b060700330037004344dd00240b210087
:1013b0002d0037000004fb00844f50001f00340054
:1013c00044062000110009000404d800a9002000f0
:1013d000110009008900d800e9004000c308dd00c1
:1013e0002a002100810045003102be002103be0019
:1013f0008b0920008a8545003b00be002b01be0002
:10140000730607000002be000203be00049fbe0078
:101410000697be00110009000904d80001047800f5
:101420004344dd00080545003a02be002a03be0021
:101430003e00be002e01be00d9ff3700ea4f50002b
:1014400007003400a4002000110009000404d800a3
:10145000690040004300dd0024002100c9ff37007f
:101460004344dd0024002100080442003800be008f
:101470002801be004f05be004f04be000080fa00e8
:10148000000006004000fa00889fbe008a9fbe0050
:101490008c9fbe0030179800010f9800520f9800e3
:1014a0006000b8006011b800100f9800210f98007c
:1014b000320f9800430f98000006eb00bc03370082
:1014c0008e0890008100e800010f980054c2b3001c
:1014d000844f500006003a00810378008002eb0040
:1014e00000c3b30001c2b300b2c2b30007003700ab
:1014f0000000fb00be109000b8030700e10f4000a1
:10150000ab0332000c06e800a9033700070278009d
:1015100037437800d3c2b300834f53000900320031
:1015200005003c00814f530008003200824f5300f9
:101530000c003a0007003700804f530009003a00c2
:10154000060037000530a000f0ff37000500a000be
:10155000eeff37000510a000ecff37000520a000cb
:10156000eaff3700e2836200010032000500a100bb
:10157000e8836200010032000520a1008603fb0021
:101580000703b100e98f53000d003e00040378000b
:1015900007002000ea3ab800b603fb000703b100d9
:1015a00084834300060278001600fb000003b100ac
:1015b000e90f5000f7ff3600271798000a003700a0
:1015c0008003eb0027179800a7c2b300874f530092
:1015d00005003a005e089000c0007800500f9800a7
:1015e000211798000402e800e6c2b300944f1300ec
:1015f00017003a0005e0a00064435300d44f1300e5
:1016000003003200040378000000200009003700c6
:10161000de09900043037800530f9800061f9800de
:101620000402e800c7c6b3000d003700ea00b800a6
:101630000080430006027800b603fb000703b100f8
:10164000e98f5300f9ff3600001f9800f5ff3700bf
:1016500005c0a0008003eb00071f9800f1ff3700d2
:1016600034437800040f9800874f5300160032006f
:10167000c4c6b300844f530009003c0069425200c5
:10168000844f53006100320063424200844f530094
:1016900013003200e04f53004a0332007a00370053
:1016a00054c7b300844f53007b00320063424200b2
:1016b000844f53000d00320065425200844f5300a6
:1016c00071003a000c0037007080620006012000b3
:1016d000010032000600280086827200e0ff370019
:1016e000064f780005a0a0006d003700064f780077
:1016f0000570a0006a003700064f7800de089000f1
:1017000041027800510f980004047800e00f520065
:1017100001003a0088222100880378000002eb00d3
:10172000010037000402e800048343000041eb009d
:10173000964f1100fbff3a00840478008e19900048
:10174000e08f510003003200898f51000100310009
:10175000830478008006eb002e139000890f53005d
:101760000100360089065300e8826200051f9800d8
:1017700014003a0007003700be109000000220005d
:1017800016030700e10f4000010032000c06e800dc
:101790008d06e900e08f5600f7ff3a008086eb00e7
:1017a00008003700080278003400fb0004047800c9
:1017b000be10900009030700e10f40000100320055
:1017c0000c06e800090278008404e900e00f5200ea
:1017d000f4ff3a008e1b9000e08f5300f4023200b9
:1017e00007003700be10900000022000fb02070037
:1017f000e10f4000010032000c06e8008d06e90010
:10180000e08f5600f7ff3a00e90237005e089000cb
:1018100040027800500f980004007800cf80de006e
:101820000101780082017800401798005117980054
:1018300062179800731798004800de00480add0020
:1018400000007200004f78007083620009003200cf
:10185000e04f500007003200e14f40000500320029
:10186000104798000e6b9000264798002900200032
:10187000030037008e6b9000174798001900200076
:101880000e04e800adff3700064f78000e04780024
:1018900019002000a9ff3700064f7800050cb3009f
:1018a00045179800047020004e109000040260005c
:1018b000bd01320004002100040260000200320079
:1018c00061002000011f98004e119000700261001d
:1018d000050032005e0890004003be004002be00da
:1018e000500f9800060037005e0990004200be00cd
:1018f000520f98009e0407000002be000203be00c3
:10190000640f9800750f9800061798001717980035
:101910006022b8006033b8006e089000fe089000a6
:101920000e1190009e119000e3030700e00f50009d
:101930000c003d006e089000fe0890000e11900013
:101940009e11900003f0a200600f9800710f9800a4
:101950000217980013179800ce1090003100b300c2
:10196000411798000002eb00240798006022b8009d
:101970006033b8006e089000fe0890000e119000d1
:101980009e11900030040700e00f50003400320038
:101990006e089000fe0890000e1190009e119000bd
:1019a0008205070064014700ec0407002e00900048
:1019b0000000e900e300b800a400200011000900c5
:1019c0000400d80020079800e00f500002003d00fe
:1019d0000000e900200798002e0490000840ea006b
:1019e0004cfe07006e0a9000fe0a90000e13900055
:1019f0009e139000f60407000002be000203be0022
:101a0000140f9800250f9800360f9800470f980084
:101a10006022b8000600200007ff2300a60307008d
:101a2000e00f500002003d000804e9000b00370001
:101a30006022b80006002000470224001e08900023
:101a4000ae0890003e099000ce0990009f03070069
:101a5000e00f5000020035000804e8002807980055
:101a60008e1a9000f88f52000f003c00054078005d
:101a7000d3fd07000002be000203be006e08900006
:101a8000fe0890000e1190009e1190000d030700bb
:101a90000002be000203be00640f9800750f98009c
:101aa00006179800171798002e049000e90f5400ad
:101ab00015003c006022b8006033b8006e0890004a
:101ac000fe0890000e1190009e119000de030700aa
:101ad000e00f5000320032006e089000fe089000c7
:101ae0000e1190009e11900040040700e00f50007e
:101af000e08f5800e00f5900e08f590028003a00ad
:101b0000e10f5400260034000400200005002e00e0
:101b1000b6e02200170124001e089000ae089000d5
:101b20003e099000ce09900063030700e00f5000cb
:101b300002003d0073045400010037007204540099
:101b4000280798004e409000f2fd07000002be00fa
:101b50000203be00140f9800250f9800360f98005e
:101b6000470f98006e089000fe0890000e1190003c
:101b70009e1190005a0307001c0407000205be00d6
:101b80000004be006000b8006011b800600f98004b
:101b9000710f98000217980013179800170037006c
:101ba0006e089000fe0890000e1190009e119000ab
:101bb0000e0407000205be000004be003c0407003e
:101bc0000002be000203be006e089000fe089000f6
:101bd0000e1190009e119000f20407000002be005a
:101be0000203be00640f9800750f98000617980056
:101bf000171798000002eb0024079800a116210097
:101c000010c0b300080037003102be003103be002f
:101c10000440e10005c8e10006d0e10007d8e1007a
:101c2000030039000040e800f44f5000f6ff3a008e
:101c3000004f78002e029000ae12900004825200f5
:101c40000e1b9000060252000000fb0080065200ae
:101c5000e00f5300010032008d06e900ce13900022
:101c600063826300010032008d06e9004e1090008f
:101c7000640260001d003200e20260006102600048
:101c8000e08f520006003200b0022000e00f520048
:101c9000010032000080e800be1090000400370010
:101ca000e00f52000e003200be1090000002200033
:101cb000ca010700e10f4000090032000c06e800ed
:101cc00007003700be10900000032000c30107008a
:101cd000e10f4000010032000c06e8008d06e9002b
:101ce000e08f5600f7ff3c0032003700ce10900026
:101cf000688260000a003a0007003700be109000ba
:101d000000022000b5010700e10f40000100320091
:101d10000c06e8008d06e900e08f5600f7ff3c0056
:101d20004e119000e202610061026100e08f5200fa
:101d300006003200b0022000e00f52000100320025
:101d40000080e800be10900016003700e00f52003f
:101d500018003200be109000000220001100370071
:101d60008502fb00c32add00231621008582410085
:101d70005503be004502be000800be000a01be00b9
:101d8000effb0700a4002000050020006033b8002e
:101d9000f4fb07000403200000024200be10900084
:101da000040078008d010700e10f400001003200bf
:101db0000c06e8001e4278008442e900054f7800d6
:101dc000e04f5200e6ff3a0008003700be109000d6
:101dd0000003200081010700e10f400001003200f4
:101de0000c06e8000804e900280798002e0490007b
:101df000e00f5400f5ff3c000e1a9000f20f520065
:101e00000300340024c1b300044f780002003700ff
:101e10008e729000054f78001e4278008402fb000d
:101e20000e1b90008502530025179800e04f5200ca
:101e300006003200be109000e0022000670107009b
:101e4000e10f4000010032000c06e8001e4078005f
:101e500030fd07000002be000203be006e089000c5
:101e6000fe0890000e1190009e119000d80307000c
:101e70005e030700220037008502fb00c32add0055
:101e800027162100858243003500be002501be00d3
:101e9000001f9800111f9800221f9800331f980000
:101ea0000203be000002be000800be000a01be0020
:101eb000a3fb0700a4002000050020006033b80049
:101ec000a8fb07000403200000024200be1090009f
:101ed0000400780041010700e10f400001003200da
:101ee0000c06e8000e1a90009e1a90002e1b90001f
:101ef000be1b90000800be000a01be0099fb07004f
:101f00000205be000004be001e4278008442e900c3
:101f1000054f7800e04f5200d7ff3a000203be00a1
:101f20000002be00ae1490000f003700be109000fb
:101f300000032000441f9800551f9800661f98005a
:101f4000771f9800250107004e1a9000de1a9000b6
:101f50006e1b9000fe1b9000e10f4000010032005c
:101f60000c06e8008904e900e08f5400efff3a0016
:101f7000ce109000e88260000d013200e08f560024
:101f80000b013400be109000000220001301070076
:101f9000e10f4000010032000c06e8008d06e90068
:101fa000f8ff3a00020137004e119000e00f510097
:101fb00005003d00de0990004305be004304be005d
:101fc000530f9800150037004e139000f002630085
:101fd0000c0032005e0990004200be00520f9800d3
:101fe000300798004107980054079800640798004c
:101ff0003e049000ce0490005e059000ee05900037
:10200000060037005e0a900044047800540f9800e0
:10201000090020000a0020000b0020008e1a90000a
:10202000e08f520009003a0016002000061f9800b9
:10203000e00f5400e08f5c00e00f5d00e08f5d007a
:10204000020032008003eb00071f98004e10900042
:10205000000cb200600f980004082000840f5000ac
:1020600010003200040c2000840f500021003a00c0
:10207000a516210014c0b3003500be003501be0016
:102080000040e10001c8e10002d0e10003d8e10016
:10209000170039000442e800f44f5200f6ff3a00fe
:1020a0001300370014c0b30000012000010020001d
:1020b0006011b8000040e10001c8e10002d0e10079
:1020c00003d8e1000a003900450020000000d000dc
:1020d0008180d2000281d2008381d2008502e90092
:1020e000faff3a000442e800f04f5200f1ff3a00d4
:1020f000044f78001e02fb000e1b9000860f52005a
:1021000002003d00064f7800040037008e1b90004f
:10211000848f530001003d00041f98002e10900092
:10212000e00f500005003200ce1090006382600086
:10213000020032000000e90020179800040024008b
:102140004e1190000402610009003200ae119000af
:102150000e1a9000848f51000300340084815100d6
:1021600023179800020037008002eb002517980023
:102170001e02fb008006eb002e139000840f53001c
:102180000100340084065300ce1390006482630083
:102190001c003200e282630061826300e08f520023
:1021a00006003200b0022000e00f520001003200b1
:1021b0000080e800be10900004003700e00f5200dd
:1021c00006003200be1090000002200083000700cd
:1021d000e10f4000010032000c06e800e08f5600dd
:1021e00028003200be109000000320007b00070092
:1021f000e10f4000010032000c06e8008d06e90006
:10220000f6ff3700e08f56000b0032004e109000b2
:102210006802600008003a00be1090000002200032
:102220006e000700e10f4000010032000c06e800dc
:102230008d06e900f8ff3a00ce109000e2826000bf
:1022400061826000e08f520006003200b002200080
:10225000e00f5200010032000080e800be10900044
:1022600004003700e00f520006003200be1090005c
:102270000002200059000700e10f40000100320079
:102280000c06e8000e1990000202e9004323dd006d
:102290002516210085024300251798004222dd0003
:1022a00074079800320037008e1990008301e9000e
:1022b000031f98006e0a900005082000850f520049
:1022c00011003200040c20006e0b9000840f5300ac
:1022d0001b003a002e1090003002be002003be000a
:1022e0000800be000a01be0095fa0700a400200005
:1022f000050020006033b8009afa070004c3b30059
:10230000044f40000e0037000802be000a03be0062
:102310007e0090000000e900050033008703d10033
:102320000683d3008582d3000482d300f9ff3700ef
:102330006f026200f122210001024200144f780076
:102340001e00fb00be10900024000700e10f4000bb
:10235000010032000c06e8002e11900068015100c7
:1023600022179800fe019000e48151007307980045
:102370000e1a9000e00f5200cbff3a004e1390006f
:10238000e80263000a003200e08f560008003400c3
:10239000be1090000002200010000700e10f400076
:1023a000010032000c06e8008d06e900f8ff3a0053
:1023b0008e0b900017407800004f7800e04f5000df
:1023c0003ffc3a000c0078004f06be004f05be00ef
:1023d0004f04be000080fa00000006000000fa0072
:1023e000889fbe000104780038029000e20262007b
:1023f0008084eb003b003200040378000620b2002a
:102400009802900002003a00e08f520035003a0036
:102410000490a0003404980080047800f90fb20002
:10242000e08f520002003a00a8029000050c7800ec
:10243000ea8f540005003a000408b20003003a0095
:1024400088007800d0002000e4ff07001802900008
:10245000d8029000850f52000b0032000402e80001
:102460001404980018027800094a7800040ce80067
:1024700015c0b30004242100054a7800ea8f5400f7
:1024800018003a00050037008800780009407800fd
:10249000180007008004780012003700380290000e
:1024a0000410b2000f00320018019000a800900044
:1024b000480090005300070018029000840f50005d
:1024c00004003200380290000403b3003404980082
:1024d0008084eb000002eb001404980028029000b6
:1024e000040c7800090078004f04be000080fa0058
:1024f000000006000200fa00889fbe00004f78002e
:102500000104780038029000840278000504b200cb
:10251000020032000000fb0033003700e2026200dc
:1025200005003a000403b300340498001504980031
:102530000080eb002c003700d8049000e08f54009e
:1025400006003a00120020008e007800480090003b
:102550002c0007001904980022003700a802900000
:10256000e08f520008003a0035242100250498002d
:10257000050c7800250020005504980015049800eb
:102580000430a0003404980018019000a8009000c6
:10259000480090001b000700280290008082eb009a
:1025a000150498001e4a7800040ce800a4c0b3008b
:1025b0009e4f12000b003a00380290000410b20047
:1025c0000800320018019000a80090004800900018
:1025d0000c0007000002eb00140498002802900091
:1025e000040c78001e00fb004f04be000080fa00bf
:1025f000000006000000fa0000c0da000080fa00c7
:10260000000006000a00fa00e20f500022003e001f
:1026100034928000e10f5200060032008723200030
:10262000462320002423200005232000e08f5300b0
:1026300004003a00872220004622200024222000a5
:1026400005222000000028001500600003003a0069
:10265000800b780007002800958a73000540200051
:102660009482620001003a0014a0a0008202780067
:1026700006003700940378000710b200fdff320017
:10268000b103fb00070b78008502e900e08f5200e0
:10269000f8ff3a000800370034002000040f7800eb
:1026a0001007980021079800320798000e00780064
:1026b000d0ff07003e019000020078000080fa0081
:1026c000000006002800fa00889fbe008a9fbe0016
:1026d0008c9fbe0007067800878669000c003b00cf
:1026e000030478008704780008f0a10009f0a10035
:1026f000840f5000858f5800860f5900890f5c00a9
:10270000030033000cf0a20001003a000cf0a1001d
:10271000fe0007006400e1005f003200780147001e
:102720006408e100610032006c01470074855700c5
:102730003200be001201be003a04be001a05be00ff
:102740001e039000be0a90008503530006003d0062
:102750000004fd008104fd000205fd008305fd006d
:102760008703ea00050378000df8a3000400320097
:1027700060041400e0841c0060051d00e0851d005d
:102780006022b8007d0320000d38e1008006eb00d8
:102790000b0039004433dd00f300b2008301730005
:1027a00039003700848272000d027800e10664006f
:1027b0008b85d1000a85d3008984d3000884d30097
:1027c0008703e900f7ff3b000800400089804800cc
:1027d0000a0149008b81490004003b0060001000a1
:1027e000e080180060011900e08119000358a3007f
:1027f000090032008d8272008482720061026000e2
:102800008301d1000281d3008180d3000080d300f6
:102810000603e8001b0037000348a30017003a0036
:102820000600e000170034000603e9000d00a300d5
:10283000000048008180480002014900838149006e
:102840000348a3000f003a000600e000090034002e
:102850000603e900000040008180480002014900b1
:102860008381490001003a000003eb000348a30004
:10287000f5ff32006022b800020037008482720047
:10288000618266007500070003f0a1000cf0a7004c
:1028900003f0a000b1003700640147006408e100c4
:1028a00002003a000df8a300a9003a003200be0071
:1028b0001201be00a90037008f1fd100e6010700fa
:1028c0008f87e9000000e00000000600809feb0019
:1028d000e10107008f87e9000000e000000006002a
:1028e0002800fa00889fbe008a9fbe008c9fbe0011
:1028f00003866b00850007006400e100440032009d
:102900006408e1004a0032006100e1004600320044
:102910006108e10049003200ec0647006000b800a1
:102920003d02be003d03be00f48657006011b800b2
:102930003d04be003d05be007d0320000b003700b6
:102940000000a0008d06e9001300320004024200de
:1029500085824a0006034b0087834b00000040003d
:102960008180480002014900838149000802520029
:1029700089825a000a035b008b835b00f0ff3b00f7
:102980000802420089824a000a034b008b834b00f5
:102990008d06e900edff3a008482720086827200a3
:1029a000f707b20087827200010032001500200094
:1029b0001e0490003e0b900006035400e63fb0005a
:1029c0000368a300070032000000a7000500a00074
:1029d0008301d1000281d3008180d3000080d30025
:1029e0000603e8008301d1000281d3008180d30077
:1029f0000080d3000002eb000482d2001700070021
:102a000003f0a1000cf0a70003f0a0005300370072
:102a1000640247006408e1004d0032003400be004b
:102a20003401be00f6ff37006108e10048003200c3
:102a30006011b8006000b800f1ff370003ff270005
:102a400002002000fbff3700801feb00820107001f
:102a50008f87e9000000e000000006001800200059
:102a600057002000080453000d003d000600200020
:102a700097fc2f000740e1001e00340084827200a2
:102a8000610260008301d1000281d3008180d30004
:102a90000080d3000804e800f8ff3a004700200057
:102aa0006104600005047400040464000d00320039
:102ab00061004000e080480060014900e081490079
:102ac00003b8a500070032000603e8006538e100fe
:102ad00004003a008301d1000281d3008180d30039
:102ae0000080d300f87f20000830e10003003500ab
:102af000080378006000b8006011b8004433dd00be
:102b0000f300b20083017300000006006804470070
:102b10000294be000094be00fc0447008694be00f0
:102b20008494be0009007800940107000800780032
:102b30009201070099007800814f70000b003b0064
:102b40000800be006d0107004f00b1000300370010
:102b5000f3ff2700f2ff2f006110b9004f06be00ff
:102b60004f05be004f04be000080fa0000000600c2
:102b7000810378003df907000001be006000b80045
:102b80000478a30013003a006220e10015003e0023
:102b90000d0039008301d1000281d3008180d30070
:102ba0008301d1000281d3008180d3008301d10051
:102bb0000281d3008180d3000538b000c42add0033
:102bc000f300b2008381720007f0a70003f0a000b9
:102bd00000000600f3ff2700f2ff2f006110b9008c
:102be000fbff370003ff2700f7ff37001400fa0050
:102bf000889fbe008a9fbe008c9fbe000004be005e
:102c00000205be00680047000a90be000890be00a2
:102c10005a0107000070a7000bf0a1000bf8a300f9
:102c200020003a009e0990000e099000fe009000de
:102c30006e0090009e029000344320008482520077
:102c4000c6ff32000a003c00b4fc2f000428e1005b
:102c5000140034008301d1000281d3008180d300ad
:102c60000080d3008502e800faff3a00bbff37007e
:102c7000b40020000428e10007003c0000004000f0
:102c80008180480002014900838149008502e900f2
:102c9000faff3a00b1ff37000300280002002000cd
:102ca000010037006011b8006000b800abff3700ca
:102cb000889fbe00008270000402710004827100cf
:102cc0002400320036432000c50020008383cf005b
:102cd0000a0039000541b1008283cf0007003900a6
:102ce0000541b1008183cf00040039000541b100e6
:102cf0008083cf00010039000541b10085c3530036
:102d00006022b800120032000a003b008482720088
:102d1000610260008301d1000281d3008180d30071
:102d20000080d3000603e8008743e800f7ff3a007d
:102d30000700370000004000818048000201490080
:102d4000838149000603e9008743e900f9ff3a005f
:102d500042ff07004f04be00000006001400fa0006
:102d6000889fbe008a9fbe008c9fbe00040678002c
:102d70000004be000205be00680047000a90be00c5
:102d80000890be00fd0007006200e1000800be00e0
:102d90000a01be00040020000b003a001e02900051
:102da000e43fb1006e009000fe0090000e0990001c
:102db0009e099000f300b20005fe2300858171009a
:102dc0000bf0a70003f0a000040e780063ff3700ab
:102dd0002800fa00889fbe008a9fbe008c9fbe001c
:102de00003866b0049ff07000028a30064003a0037
:102df0000128a30067003a000008a30062003a001f
:102e00000108a30065003a001e009000be08900073
:102e100081064000ed3fb100f4805700ee019000c4
:102e2000111ab8008e099000311bb8009e0990005d
:102e3000311cb800511db800f4855700460007004a
:102e4000fe0190003a0007008b85e8003e00070075
:102e50008e09900040000700ee019000340007004a
:102e60008b85e800380007008e09900040000700bd
:102e70009e0990001b18b800890440000a8548008c
:102e8000fe019000340007008b85e8003800070041
:102e9000ee019000300007008e0990001b18b8006a
:102ea000890440000a8548000a98a30008003a00f7
:102eb0000402420085824a0006034b0087834b00d0
:102ec00008044c0089844c000a054d008d06e90079
:102ed00084827200850273004c3add008502720024
:102ee0000100320015002000443ade001400b20058
:102ef0004538de00cb45dd000b007000c540de002c
:102f0000cb4ddd008b8070004549de00cb55dd00e8
:102f10000b017100c551de000d037800cffe0700e4
:102f200003f0a1000cf0a70003f0a0000bff370096
:102f30001b18b8008502400006834800e0834b0060
:102f400060044c00070037001b18b800060340005f
:102f500087834800faff37001b18b800870340003a
:102f600008844800e0844c0060054d000000060025
:102f70001b18b8000804400089844800faff370095
:102f80000108a300f2fe3a005800be005801be003e
:102f9000e3ff37000008a300edfe3a0009047800c3
:102fa000f9ff370007f0a200c6fd37001400fa0051
:102fb000889fbe008a9fbe008c9fbe000005be0099
:102fc0000206be00680047000c90be000a90be00da
:102fd0006a0007006400e1001a00320016003e009b
:102fe0006100e1001a0032006e049000fe049000bf
:102ff0000e0b90009e0b90006011b8009e05900093
:103000000b38b100d501200082817100610164009c
:103010008703d1000683d3008984d3000884d300ba
:103020008502e900f8ff3a00fff507000df0a70060
:1030300001f0a000c9fe3700f1ff2700f0ff2f00cc
:10304000c6fe370001f8270000002000f7ff370018
:103050006000b800f5ff3700889fbe008a9fbe0061
:103060008c9fbe000404be000605be00809fbe000b
:10307000829fbe002f000700040678000800be00f3
:103080000a01be002b000700840678004f03be0033
:103090004f02be008d4f76007fb0970013003300c3
:1030a000f0ff2f008b8f6b0006003b000d066600c3
:1030b0000c00a7000a00370007f0a600100020004f
:1030c0000a003700880f5200898f5a008a0f5b0070
:1030d0008b8f5b00030039001000200001003e00d0
:1030e0000000200007f0a7000000ea004f06be0025
:1030f0004f05be004f04be0000000600e482400001
:103100001078a30007003200640240001178a30089
:103110003400be001401be00040032000330a700da
:10312000000006003500be001501be000330a000ff
:103130000000060005ff270005826100070032003d
:103140000428e10001003200240005000600070009
:1031500001003a00440005000408050002000700d1
:10316000f9ff3a00140005006f82610081027000cf
:103170008502710085027200000006008000780060
:103180005002be005003be004439de00f700b2001a
:10319000f37f200003016100090032000218e10002
:1031a00016003a0085017200830173008381730069
:1031b0000008200015003a004000200013003700ee
:1031c00085017200830173008381730005003a005a
:1031d00004a8be0006a8be00100020000b003700a7
:1031e0000201e9000402420085824a0006034b0006
:1031f00087834b000748a300f9ff32000740a00077
:1032000004a8be0006a8be00200020008000980090
:08321000920098000000060086
:020000040000fa
:103218005620000050560000205b0000565d00005c
:10322800203d000020250000342e000033660000f9
:103238000054000020500000562000005b460000ab
:103248005d2000003d200000253400002e310000e4
:04325800660000000c
:020000040000fa
:10325c000010000002000000800000002812000096
:10326c001800000082000000286e75006c6c2900ac
:10327c0000303100323334003536370038396100d4
:10328c00626364006566000062110000a00000002b
:10329c0082000000010000000000000000000a0095
:1032ac0000000000000000000064000000000000ae
:1032bc0000000000e8030000000000000000100007
:1032cc00270000000000000000a0860001000000a4
:1032dc000000000040420f000000000000008000d1
:1032ec0096980000000000000000e100f5050000c9
:1032fc000000000000ca9a003b0000000000000023
:10330c00e40b5400020000000000e80076481700af
:10331c00000000000010a500d4e800000000000030
:10332c00a0724e0018090000000040007a10f30053
:10333c005a0000000080c600a47e8d00030000002f
:10334c0000c16f00f2862300000000008a5d780047
:10335c004563010000006400a7b3b600e00d000057
:10336c0000e889000423c7008a0000000210000056
:10337c00600100008200000000000000000000005e
:10338c00f03f00000000000000002400400000009e
:10339c000000000000594000000000000000400048
:1033ac008f400000000000000088c30040000000b7
:1033bc00000000006af8400000000000008084005b
:1033cc002e41000000000000d012630041000000fc
:1033dc0000008400d7974100000000000065cd007c
:1033ec00cd410000000020005fa002004200000060
:1033fc0000801d00af1544000000000040593e0045
:10340c0029460000000000000000f0007f000000d2
:10341c000000000000f07f00000000000000000031
:10342c00f07f0000000000000000f0007f000000b2
:10343c000000000000f07f00000000000000000011
:10344c00f07f0000000000000000f0007f00000092
:10345c000000000000f07f000000000000000000f1
:10346c00f07f0000000000000000f0003f000000b2
:10347c0000a0990099b93f000000000040e17a00db
:10348c00843f00000000e0004d6250003f0000004f
:10349c0000e0e200361a3f000000000080b5f800a2
:1034ac00e43e00000000a000f7c6b0003e000000a3
:1034bc0000a0f200d77a3e0000000000e08e7900f8
:1034cc00453e00000000e0000b2e11003e00000005
:1034dc0000e0df007cdb3d000000000000a19c0050
:1034ec00c73b0000000000004c48b400390000004d
:1034fc00000020006ca1370000000000000000005c
:10350c0000000000000000000000000000000000af
:10351c00000000000000000000000000000000009f
:10352c00000000000000000000000000000000008f
:10353c00000000000000000000000000000000007f
:10354c00000000000000000000000000000000006f
:10355c004012000006000000800000000212000073
:10356c002600000082000000411200000041120001
:10357c00090000000002000043120000004312008a
:10358c000e0201000000000000000000000000001e
:10359c0006020200000000000212000046120000a9
:1035ac00020000008200000001000000000000008a
:020000040000fa
:1035bc000000fa000e0ea800000ea80021e3a800df
:1035cc000080fa00000006001e00fa00441f2000d4
:1035dc00040f7800b4000700f5ff07001e02780006
:1035ec0004007800010020000200200003002000ed
:1035fc0084a82300850320006033b8003ef6070042
:10360c000203be000002be000400be000601be00a4
:10361c00843e2000050020006033b800c5f507008b
:10362c000203be000002be000402be000400be0085
:10363c00d70007002023a800400220000100200032
:10364c00d30007002023a90000000000041980000b
:10365c0061026200e00f5200fcff3200041880008f
:10366c00050020000400be006af407000002be0042
:10367c0032332300330524000400be00a5f40700f8
:10368c000002be0002002c00f34724000400be0020
:10369c001ef407000002be001407980025079800ce
:1036ac001e019000ae01900060442900e1fe230051
:1036bc00b8f307000002be00220f2300236823008a
:1036cc000400be0011f407000002be0002ba200084
:1036dc0063a024000400be00aff307000002be008c
:1036ec000400be00bff407000002be0082eb230002
:1036fc00934b24000400be00a6f307000002be009a
:10370c0034079800450798006266260063fe230084
:10371c003e009000ce0090007ef407000002be0038
:10372c0002002000032024000400be009af30700ce
:10373c000002be0054079800650798000000eb00db
:10374c00720007006e0347001e029000ae0290004c
:10375c00849fbe00c4902900841f78000600780066
:10376c007ff60700e68757006e02470004007800da
:10377c006f00070000042000640007006e03470080
:10378c005e029000ee029000849fbe00d49129004e
:10379c00841f78000600780071f60700e687570052
:1037ac006e02470004007800610007000060fe0014
:1037bc008aff37000000fa000002eb00f47088006a
:1037cc00f40f2c00847088000002eb0094708800c9
:1037dc000080fa00000006000000fa00a0cc2100d6
:1037ec00010020006a00070013aea800a0cc210045
:1037fc00010020006600070013aea900a0cc210038
:10380c0001002000620007000080fa0000000600a2
:10381c000400fa00000f7800110798001e027800cf
:10382c004822dd00947088001e029000044278004b
:10383c00614262000482fb00610262004c22dd00e6
:10384c0096708000f5ff2e008502630004827200e2
:10385c0094708800e0ff07000002eb009470880071
:10386c000080fa00000006000400fa00000f780047
:10387c0011079800040f20001e02620044a2de0013
:10388c009e00900004007800e1ff07009e02780083
:10389c006f8262009e00900004007800dcff07003d
:1038ac000080fa00000006000000fa00c1ff0700cb
:1038bc008000eb0030002000d5ff07008000eb00fb
:1038cc0030002000d2ff07008000eb003000200009
:1038dc00cfff07008000eb0020002000ccff07008a
:1038ec008000eb0080022000dfff07008000eb006f
:1038fc0010002000dcff07008000eb00c00020005f
:10390c00d9ff07000080fa00000006000200fa0050
:10391c00000f7800050820001e8242008000eb009a
:10392c0004007800d0ff07000080fa0000000600b9
:10393c000400fa00881f7800100798000002eb00c2
:10394c00040f7800090037001e0278009e029000d8
:10395c0004824200144278000402fb001100200093
:10396c0004007800c0ff07001e0fe8001e0478005a
:10397c001e009000f1f5070000027800840f54003f
:10398c00f1ff39004f0478000080fa0000000600b7
:020000040000fa
:10399c00f03fb1000180b10006003500ee030900d4
:1039ac0000000000403fb1000180b100fbff3d0072
:1039bc001000b000203fb00002003500008009006c
:0839cc000000000000000600ed
:020000040000fa
:020000040001f9
:045fe000ceff0000f0
:00000001FF
